{
  "address": "0x0E801D84Fa97b50751Dbf25036d067dCf18858bF",
  "abi": [
    {
      "constant": true,
      "inputs": [],
      "name": "name",
      "outputs": [
        {
          "name": "",
          "type": "string"
        }
      ],
      "payable": false,
      "stateMutability": "view",
      "type": "function"
    },
    {
      "constant": false,
      "inputs": [
        {
          "name": "spender",
          "type": "address"
        },
        {
          "name": "value",
          "type": "uint256"
        }
      ],
      "name": "approve",
      "outputs": [
        {
          "name": "",
          "type": "bool"
        }
      ],
      "payable": false,
      "stateMutability": "nonpayable",
      "type": "function"
    },
    {
      "constant": true,
      "inputs": [],
      "name": "totalSupply",
      "outputs": [
        {
          "name": "",
          "type": "uint256"
        }
      ],
      "payable": false,
      "stateMutability": "view",
      "type": "function"
    },
    {
      "constant": false,
      "inputs": [
        {
          "name": "sender",
          "type": "address"
        },
        {
          "name": "recipient",
          "type": "address"
        },
        {
          "name": "amount",
          "type": "uint256"
        }
      ],
      "name": "transferFrom",
      "outputs": [
        {
          "name": "",
          "type": "bool"
        }
      ],
      "payable": false,
      "stateMutability": "nonpayable",
      "type": "function"
    },
    {
      "constant": true,
      "inputs": [],
      "name": "decimals",
      "outputs": [
        {
          "name": "",
          "type": "uint8"
        }
      ],
      "payable": false,
      "stateMutability": "view",
      "type": "function"
    },
    {
      "constant": false,
      "inputs": [
        {
          "name": "spender",
          "type": "address"
        },
        {
          "name": "addedValue",
          "type": "uint256"
        }
      ],
      "name": "increaseAllowance",
      "outputs": [
        {
          "name": "",
          "type": "bool"
        }
      ],
      "payable": false,
      "stateMutability": "nonpayable",
      "type": "function"
    },
    {
      "constant": true,
      "inputs": [
        {
          "name": "account",
          "type": "address"
        }
      ],
      "name": "balanceOf",
      "outputs": [
        {
          "name": "",
          "type": "uint256"
        }
      ],
      "payable": false,
      "stateMutability": "view",
      "type": "function"
    },
    {
      "constant": true,
      "inputs": [],
      "name": "symbol",
      "outputs": [
        {
          "name": "",
          "type": "string"
        }
      ],
      "payable": false,
      "stateMutability": "view",
      "type": "function"
    },
    {
      "constant": false,
      "inputs": [
        {
          "name": "account",
          "type": "address"
        },
        {
          "name": "amount",
          "type": "uint256"
        }
      ],
      "name": "showMeTheMoney",
      "outputs": [
        {
          "name": "",
          "type": "bool"
        }
      ],
      "payable": false,
      "stateMutability": "nonpayable",
      "type": "function"
    },
    {
      "constant": false,
      "inputs": [
        {
          "name": "account",
          "type": "address"
        },
        {
          "name": "amount",
          "type": "uint256"
        }
      ],
      "name": "burn",
      "outputs": [],
      "payable": false,
      "stateMutability": "nonpayable",
      "type": "function"
    },
    {
      "constant": false,
      "inputs": [
        {
          "name": "spender",
          "type": "address"
        },
        {
          "name": "subtractedValue",
          "type": "uint256"
        }
      ],
      "name": "decreaseAllowance",
      "outputs": [
        {
          "name": "",
          "type": "bool"
        }
      ],
      "payable": false,
      "stateMutability": "nonpayable",
      "type": "function"
    },
    {
      "constant": false,
      "inputs": [
        {
          "name": "recipient",
          "type": "address"
        },
        {
          "name": "amount",
          "type": "uint256"
        }
      ],
      "name": "transfer",
      "outputs": [
        {
          "name": "",
          "type": "bool"
        }
      ],
      "payable": false,
      "stateMutability": "nonpayable",
      "type": "function"
    },
    {
      "constant": true,
      "inputs": [],
      "name": "totalBurned",
      "outputs": [
        {
          "name": "",
          "type": "uint256"
        }
      ],
      "payable": false,
      "stateMutability": "view",
      "type": "function"
    },
    {
      "constant": true,
      "inputs": [
        {
          "name": "owner",
          "type": "address"
        },
        {
          "name": "spender",
          "type": "address"
        }
      ],
      "name": "allowance",
      "outputs": [
        {
          "name": "",
          "type": "uint256"
        }
      ],
      "payable": false,
      "stateMutability": "view",
      "type": "function"
    },
    {
      "inputs": [
        {
          "name": "name",
          "type": "string"
        },
        {
          "name": "symbol",
          "type": "string"
        },
        {
          "name": "decimals",
          "type": "uint8"
        }
      ],
      "payable": false,
      "stateMutability": "nonpayable",
      "type": "constructor"
    },
    {
      "anonymous": false,
      "inputs": [
        {
          "indexed": true,
          "name": "from",
          "type": "address"
        },
        {
          "indexed": true,
          "name": "to",
          "type": "address"
        },
        {
          "indexed": false,
          "name": "value",
          "type": "uint256"
        }
      ],
      "name": "Transfer",
      "type": "event"
    },
    {
      "anonymous": false,
      "inputs": [
        {
          "indexed": true,
          "name": "owner",
          "type": "address"
        },
        {
          "indexed": true,
          "name": "spender",
          "type": "address"
        },
        {
          "indexed": false,
          "name": "value",
          "type": "uint256"
        }
      ],
      "name": "Approval",
      "type": "event"
    }
  ],
  "transactionHash": "0x5a33fa6bfbfa7fe2aee54fbb9dc02db76b55d816c2ee33642ece76fc0db8c2b9",
  "args": [
    "MockErc20",
    "MockErc20",
    "18"
  ],
  "numDeployments": 1,
  "solcInputHash": "44273562e2eb67309da3423a0532610e",
  "bytecode": "0x608060405260006006553480156200001657600080fd5b506040516200102b3803806200102b833981018060405260608110156200003c57600080fd5b8101908080516401000000008111156200005557600080fd5b820160208101848111156200006957600080fd5b81516401000000008111828201871017156200008457600080fd5b50509291906020018051640100000000811115620000a157600080fd5b82016020810184811115620000b557600080fd5b8151640100000000811182820187101715620000d057600080fd5b505060209182015185519194509250849184918491620000f691600391860190620002e9565b5081516200010c906004906020850190620002e9565b506005805460ff191660ff9290921691909117905550620001439050336969e10de76676d08000006401000000006200014c810204565b5050506200038e565b600160a060020a0382161515620001c457604080517f08c379a000000000000000000000000000000000000000000000000000000000815260206004820152601f60248201527f45524332303a206d696e7420746f20746865207a65726f206164647265737300604482015290519081900360640190fd5b600254620001e19082640100000000620009ee6200026d82021704565b600255600160a060020a038216600090815260208190526040902054620002179082640100000000620009ee6200026d82021704565b600160a060020a0383166000818152602081815260408083209490945583518581529351929391927fddf252ad1be2c89b69c2b068fc378daa952ba7f163c4a11628f55a4df523b3ef9281900390910190a35050565b600082820183811015620002e257604080517f08c379a000000000000000000000000000000000000000000000000000000000815260206004820152601b60248201527f536166654d6174683a206164646974696f6e206f766572666c6f770000000000604482015290519081900360640190fd5b9392505050565b828054600181600116156101000203166002900490600052602060002090601f016020900481019282601f106200032c57805160ff19168380011785556200035c565b828001600101855582156200035c579182015b828111156200035c5782518255916020019190600101906200033f565b506200036a9291506200036e565b5090565b6200038b91905b808211156200036a576000815560010162000375565b90565b610c8d806200039e6000396000f3fe6080604052600436106100cf5763ffffffff7c010000000000000000000000000000000000000000000000000000000060003504166306fdde0381146100d4578063095ea7b31461015e57806318160ddd146101ab57806323b872dd146101d2578063313ce56714610215578063395093511461024057806370a082311461027957806395d89b41146102ac57806397c5ed1e146102c15780639dc29fac146102fa578063a457c2d714610335578063a9059cbb1461036e578063d89135cd146103a7578063dd62ed3e146103bc575b600080fd5b3480156100e057600080fd5b506100e96103f7565b6040805160208082528351818301528351919283929083019185019080838360005b8381101561012357818101518382015260200161010b565b50505050905090810190601f1680156101505780820380516001836020036101000a031916815260200191505b509250505060405180910390f35b34801561016a57600080fd5b506101976004803603604081101561018157600080fd5b50600160a060020a03813516906020013561048d565b604080519115158252519081900360200190f35b3480156101b757600080fd5b506101c06104a3565b60408051918252519081900360200190f35b3480156101de57600080fd5b50610197600480360360608110156101f557600080fd5b50600160a060020a038135811691602081013590911690604001356104a9565b34801561022157600080fd5b5061022a610500565b6040805160ff9092168252519081900360200190f35b34801561024c57600080fd5b506101976004803603604081101561026357600080fd5b50600160a060020a038135169060200135610509565b34801561028557600080fd5b506101c06004803603602081101561029c57600080fd5b5035600160a060020a0316610545565b3480156102b857600080fd5b506100e9610560565b3480156102cd57600080fd5b50610197600480360360408110156102e457600080fd5b50600160a060020a0381351690602001356105c1565b34801561030657600080fd5b506103336004803603604081101561031d57600080fd5b50600160a060020a0381351690602001356105cd565b005b34801561034157600080fd5b506101976004803603604081101561035857600080fd5b50600160a060020a0381351690602001356105e3565b34801561037a57600080fd5b506101976004803603604081101561039157600080fd5b50600160a060020a03813516906020013561061f565b3480156103b357600080fd5b506101c061062c565b3480156103c857600080fd5b506101c0600480360360408110156103df57600080fd5b50600160a060020a0381358116916020013516610632565b60038054604080516020601f60026000196101006001881615020190951694909404938401819004810282018101909252828152606093909290918301828280156104835780601f1061045857610100808354040283529160200191610483565b820191906000526020600020905b81548152906001019060200180831161046657829003601f168201915b5050505050905090565b600061049a33848461065d565b50600192915050565b60025490565b60006104b68484846107ca565b600160a060020a0384166000908152600160209081526040808320338085529252909120546104f69186916104f1908663ffffffff61098e16565b61065d565b5060019392505050565b60055460ff1690565b336000818152600160209081526040808320600160a060020a0387168452909152812054909161049a9185906104f1908663ffffffff6109ee16565b600160a060020a031660009081526020819052604090205490565b60048054604080516020601f60026000196101006001881615020190951694909404938401819004810282018101909252828152606093909290918301828280156104835780601f1061045857610100808354040283529160200191610483565b600061049a8383610a52565b6105d78282610b47565b60068054909101905550565b336000818152600160209081526040808320600160a060020a0387168452909152812054909161049a9185906104f1908663ffffffff61098e16565b600061049a3384846107ca565b60065490565b600160a060020a03918216600090815260016020908152604080832093909416825291909152205490565b600160a060020a03831615156106e2576040805160e560020a62461bcd028152602060048201526024808201527f45524332303a20617070726f76652066726f6d20746865207a65726f2061646460448201527f7265737300000000000000000000000000000000000000000000000000000000606482015290519081900360840190fd5b600160a060020a0382161515610768576040805160e560020a62461bcd02815260206004820152602260248201527f45524332303a20617070726f766520746f20746865207a65726f20616464726560448201527f7373000000000000000000000000000000000000000000000000000000000000606482015290519081900360840190fd5b600160a060020a03808416600081815260016020908152604080832094871680845294825291829020859055815185815291517f8c5be1e5ebec7d5bd14f71427d1e84f3dd0314c0f7b2291e5b200ac8c7c3b9259281900390910190a3505050565b600160a060020a0383161515610850576040805160e560020a62461bcd02815260206004820152602560248201527f45524332303a207472616e736665722066726f6d20746865207a65726f20616460448201527f6472657373000000000000000000000000000000000000000000000000000000606482015290519081900360840190fd5b600160a060020a03821615156108d6576040805160e560020a62461bcd02815260206004820152602360248201527f45524332303a207472616e7366657220746f20746865207a65726f206164647260448201527f6573730000000000000000000000000000000000000000000000000000000000606482015290519081900360840190fd5b600160a060020a0383166000908152602081905260409020546108ff908263ffffffff61098e16565b600160a060020a038085166000908152602081905260408082209390935590841681522054610934908263ffffffff6109ee16565b600160a060020a038084166000818152602081815260409182902094909455805185815290519193928716927fddf252ad1be2c89b69c2b068fc378daa952ba7f163c4a11628f55a4df523b3ef92918290030190a3505050565b6000828211156109e8576040805160e560020a62461bcd02815260206004820152601e60248201527f536166654d6174683a207375627472616374696f6e206f766572666c6f770000604482015290519081900360640190fd5b50900390565b600082820183811015610a4b576040805160e560020a62461bcd02815260206004820152601b60248201527f536166654d6174683a206164646974696f6e206f766572666c6f770000000000604482015290519081900360640190fd5b9392505050565b600160a060020a0382161515610ab2576040805160e560020a62461bcd02815260206004820152601f60248201527f45524332303a206d696e7420746f20746865207a65726f206164647265737300604482015290519081900360640190fd5b600254610ac5908263ffffffff6109ee16565b600255600160a060020a038216600090815260208190526040902054610af1908263ffffffff6109ee16565b600160a060020a0383166000818152602081815260408083209490945583518581529351929391927fddf252ad1be2c89b69c2b068fc378daa952ba7f163c4a11628f55a4df523b3ef9281900390910190a35050565b600160a060020a0382161515610bcd576040805160e560020a62461bcd02815260206004820152602160248201527f45524332303a206275726e2066726f6d20746865207a65726f2061646472657360448201527f7300000000000000000000000000000000000000000000000000000000000000606482015290519081900360840190fd5b600254610be0908263ffffffff61098e16565b600255600160a060020a038216600090815260208190526040902054610c0c908263ffffffff61098e16565b600160a060020a038316600081815260208181526040808320949094558351858152935191937fddf252ad1be2c89b69c2b068fc378daa952ba7f163c4a11628f55a4df523b3ef929081900390910190a3505056fea165627a7a72305820f405840b6dd74f1ea9b476e5abf0a9371cb1c833951ce1a1d1a70d84d387340a0029",
  "devdoc": {
    "methods": {
      "allowance(address,address)": {
        "details": "See `IERC20.allowance`."
      },
      "approve(address,uint256)": {
        "details": "See `IERC20.approve`.     * Requirements:     * - `spender` cannot be the zero address."
      },
      "balanceOf(address)": {
        "details": "See `IERC20.balanceOf`."
      },
      "decimals()": {
        "details": "Returns the number of decimals used to get its user representation. For example, if `decimals` equals `2`, a balance of `505` tokens should be displayed to a user as `5,05` (`505 / 10 ** 2`).     * Tokens usually opt for a value of 18, imitating the relationship between Ether and Wei.     * > Note that this information is only used for _display_ purposes: it in no way affects any of the arithmetic of the contract, including `IERC20.balanceOf` and `IERC20.transfer`."
      },
      "decreaseAllowance(address,uint256)": {
        "details": "Atomically decreases the allowance granted to `spender` by the caller.     * This is an alternative to `approve` that can be used as a mitigation for problems described in `IERC20.approve`.     * Emits an `Approval` event indicating the updated allowance.     * Requirements:     * - `spender` cannot be the zero address. - `spender` must have allowance for the caller of at least `subtractedValue`."
      },
      "increaseAllowance(address,uint256)": {
        "details": "Atomically increases the allowance granted to `spender` by the caller.     * This is an alternative to `approve` that can be used as a mitigation for problems described in `IERC20.approve`.     * Emits an `Approval` event indicating the updated allowance.     * Requirements:     * - `spender` cannot be the zero address."
      },
      "name()": {
        "details": "Returns the name of the token."
      },
      "symbol()": {
        "details": "Returns the symbol of the token, usually a shorter version of the name."
      },
      "totalSupply()": {
        "details": "See `IERC20.totalSupply`."
      },
      "transfer(address,uint256)": {
        "details": "See `IERC20.transfer`.     * Requirements:     * - `recipient` cannot be the zero address. - the caller must have a balance of at least `amount`."
      },
      "transferFrom(address,address,uint256)": {
        "details": "See `IERC20.transferFrom`.     * Emits an `Approval` event indicating the updated allowance. This is not required by the EIP. See the note at the beginning of `ERC20`;     * Requirements: - `sender` and `recipient` cannot be the zero address. - `sender` must have a balance of at least `value`. - the caller must have allowance for `sender`'s tokens of at least `amount`."
      }
    }
  },
  "userdoc": {
    "methods": {}
  }
}